{
  "address": "0xcaE126557923b5F2b8e23ec4CCB6B868e897c5AE",
  "abi": [
    {
      "inputs": [
        {
          "internalType": "uint256",
          "name": "_pricePerUnitInWei",
          "type": "uint256"
        }
      ],
      "stateMutability": "nonpayable",
      "type": "constructor"
    },
    {
      "inputs": [],
      "name": "Solar_AmbiguousState",
      "type": "error"
    },
    {
      "inputs": [
        {
          "internalType": "uint256",
          "name": "given",
          "type": "uint256"
        }
      ],
      "name": "Solar_InsufficientFunds",
      "type": "error"
    },
    {
      "inputs": [],
      "name": "Solar_NoFallback",
      "type": "error"
    },
    {
      "inputs": [],
      "name": "Solar_NoWithdraw",
      "type": "error"
    },
    {
      "inputs": [],
      "name": "Solar_NotOwner",
      "type": "error"
    },
    {
      "anonymous": false,
      "inputs": [
        {
          "indexed": true,
          "internalType": "uint256",
          "name": "machineId",
          "type": "uint256"
        },
        {
          "indexed": false,
          "internalType": "enum Solar.State",
          "name": "state",
          "type": "uint8"
        },
        {
          "indexed": false,
          "internalType": "address",
          "name": "currentUser",
          "type": "address"
        }
      ],
      "name": "MachineState",
      "type": "event"
    },
    {
      "anonymous": false,
      "inputs": [
        {
          "indexed": true,
          "internalType": "address",
          "name": "user",
          "type": "address"
        },
        {
          "indexed": false,
          "internalType": "uint256",
          "name": "amount",
          "type": "uint256"
        }
      ],
      "name": "SolarBalanceSet",
      "type": "event"
    },
    {
      "stateMutability": "payable",
      "type": "fallback"
    },
    {
      "inputs": [],
      "name": "buy",
      "outputs": [],
      "stateMutability": "payable",
      "type": "function"
    },
    {
      "inputs": [
        {
          "internalType": "uint256",
          "name": "_machineId",
          "type": "uint256"
        }
      ],
      "name": "currentUser",
      "outputs": [
        {
          "internalType": "address",
          "name": "",
          "type": "address"
        }
      ],
      "stateMutability": "view",
      "type": "function"
    },
    {
      "inputs": [
        {
          "internalType": "address",
          "name": "user",
          "type": "address"
        }
      ],
      "name": "getBalance",
      "outputs": [
        {
          "internalType": "uint256",
          "name": "",
          "type": "uint256"
        }
      ],
      "stateMutability": "view",
      "type": "function"
    },
    {
      "inputs": [
        {
          "internalType": "uint256",
          "name": "_machineId",
          "type": "uint256"
        }
      ],
      "name": "getMachineState",
      "outputs": [
        {
          "internalType": "bool",
          "name": "",
          "type": "bool"
        }
      ],
      "stateMutability": "view",
      "type": "function"
    },
    {
      "inputs": [],
      "name": "getPrice",
      "outputs": [
        {
          "internalType": "uint256",
          "name": "",
          "type": "uint256"
        }
      ],
      "stateMutability": "view",
      "type": "function"
    },
    {
      "inputs": [
        {
          "internalType": "address",
          "name": "user",
          "type": "address"
        },
        {
          "internalType": "uint256",
          "name": "usedbalance",
          "type": "uint256"
        }
      ],
      "name": "setBalance",
      "outputs": [],
      "stateMutability": "nonpayable",
      "type": "function"
    },
    {
      "inputs": [
        {
          "internalType": "uint256",
          "name": "_machineId",
          "type": "uint256"
        }
      ],
      "name": "setMachine",
      "outputs": [],
      "stateMutability": "nonpayable",
      "type": "function"
    },
    {
      "inputs": [
        {
          "internalType": "uint256",
          "name": "_pricePerUnitInWei",
          "type": "uint256"
        }
      ],
      "name": "setPrice",
      "outputs": [],
      "stateMutability": "nonpayable",
      "type": "function"
    },
    {
      "inputs": [
        {
          "internalType": "uint256",
          "name": "_machineId",
          "type": "uint256"
        }
      ],
      "name": "startMachine",
      "outputs": [],
      "stateMutability": "nonpayable",
      "type": "function"
    },
    {
      "inputs": [
        {
          "internalType": "uint256",
          "name": "_machineId",
          "type": "uint256"
        }
      ],
      "name": "stopMachine",
      "outputs": [],
      "stateMutability": "nonpayable",
      "type": "function"
    },
    {
      "inputs": [],
      "name": "withdraw",
      "outputs": [],
      "stateMutability": "nonpayable",
      "type": "function"
    },
    {
      "stateMutability": "payable",
      "type": "receive"
    }
  ],
  "transactionHash": "0x6f8805e0af71ee69bfd2306021b78844f2ec39c7009e06e6c51cea1f5082af8b",
  "args": [
    "272136077158440"
  ],
  "numDeployments": 9,
  "solcInputHash": "78294646cba2a20affe34ab3158d3ef4",
  "bytecode": "0x60a06040523480156200001157600080fd5b506040516200128d3803806200128d8339818101604052810190620000379190620000b9565b806000819055503373ffffffffffffffffffffffffffffffffffffffff1660808173ffffffffffffffffffffffffffffffffffffffff168152505050620000eb565b600080fd5b6000819050919050565b62000093816200007e565b81146200009f57600080fd5b50565b600081519050620000b38162000088565b92915050565b600060208284031215620000d257620000d162000079565b5b6000620000e284828501620000a2565b91505092915050565b608051611178620001156000396000818161047e0152818161090e01526109a601526111786000f3fe6080604052600436106100a05760003560e01c806398d5fdca1161006457806398d5fdca146101b0578063990da6aa146101db578063a6f2ae3a14610204578063d7b80c201461020e578063e30443bc1461024b578063f8b2cb4f14610274576100af565b80630e67723b146100e15780633ccfd60b1461011e578063721b5ea6146101355780637d22902f1461015e57806391b7f5ed14610187576100af565b366100af576100ad6102b1565b005b6040517f3d6caa7900000000000000000000000000000000000000000000000000000000815260040160405180910390fd5b3480156100ed57600080fd5b5061010860048036038101906101039190610d24565b6103b1565b6040516101159190610d6c565b60405180910390f35b34801561012a57600080fd5b5061013361047c565b005b34801561014157600080fd5b5061015c60048036038101906101579190610d24565b6105ad565b005b34801561016a57600080fd5b5061018560048036038101906101809190610d24565b61075d565b005b34801561019357600080fd5b506101ae60048036038101906101a99190610d24565b61090c565b005b3480156101bc57600080fd5b506101c561099b565b6040516101d29190610d96565b60405180910390f35b3480156101e757600080fd5b5061020260048036038101906101fd9190610d24565b6109a4565b005b61020c6102b1565b005b34801561021a57600080fd5b5061023560048036038101906102309190610d24565b610af7565b6040516102429190610df2565b60405180910390f35b34801561025757600080fd5b50610272600480360381019061026d9190610e39565b610b37565b005b34801561028057600080fd5b5061029b60048036038101906102969190610e79565b610ca0565b6040516102a89190610d96565b60405180910390f35b600034036102f657346040517fccc1a9880000000000000000000000000000000000000000000000000000000081526004016102ed9190610d96565b60405180910390fd5b6000600160003373ffffffffffffffffffffffffffffffffffffffff1673ffffffffffffffffffffffffffffffffffffffff16815260200190815260200160002054905060008054670de0b6b3a7640000346103529190610ed5565b61035c9190610f46565b9050808261036a9190610f77565b600160003373ffffffffffffffffffffffffffffffffffffffff1673ffffffffffffffffffffffffffffffffffffffff168152602001908152602001600020819055505050565b6000806002600084815260200190815260200160002060000160149054906101000a900460ff169050600160028111156103ee576103ed610fab565b5b81600281111561040157610400610fab565b5b03610410576001915050610477565b60028081111561042357610422610fab565b5b81600281111561043657610435610fab565b5b03610445576000915050610477565b6040517f7c91c93400000000000000000000000000000000000000000000000000000000815260040160405180910390fd5b919050565b7f000000000000000000000000000000000000000000000000000000000000000073ffffffffffffffffffffffffffffffffffffffff163373ffffffffffffffffffffffffffffffffffffffff1614610501576040517f067b2a1600000000000000000000000000000000000000000000000000000000815260040160405180910390fd5b600047905060003373ffffffffffffffffffffffffffffffffffffffff168260405161052c9061100b565b60006040518083038185875af1925050503d8060008114610569576040519150601f19603f3d011682016040523d82523d6000602084013e61056e565b606091505b50509050806105a9576040517f5127457800000000000000000000000000000000000000000000000000000000815260040160405180910390fd5b5050565b600160028111156105c1576105c0610fab565b5b6002600083815260200190815260200160002060000160149054906101000a900460ff1660028111156105f7576105f6610fab565b5b0361072857600280600083815260200190815260200160002060000160146101000a81548160ff0219169083600281111561063557610634610fab565b5b021790555060006002600083815260200190815260200160002060000160006101000a81548173ffffffffffffffffffffffffffffffffffffffff021916908373ffffffffffffffffffffffffffffffffffffffff160217905550807f1f0eed26f6b1538f98f0227b782bbe55acfc52da545ebda9d6313873562d7ec76002600084815260200190815260200160002060000160149054906101000a900460ff166002600085815260200190815260200160002060000160009054906101000a900473ffffffffffffffffffffffffffffffffffffffff1660405161071b929190611068565b60405180910390a261075a565b6040517f7c91c93400000000000000000000000000000000000000000000000000000000815260040160405180910390fd5b50565b6002808111156107705761076f610fab565b5b6002600083815260200190815260200160002060000160149054906101000a900460ff1660028111156107a6576107a5610fab565b5b036108d75760016002600083815260200190815260200160002060000160146101000a81548160ff021916908360028111156107e5576107e4610fab565b5b0217905550336002600083815260200190815260200160002060000160006101000a81548173ffffffffffffffffffffffffffffffffffffffff021916908373ffffffffffffffffffffffffffffffffffffffff160217905550807f1f0eed26f6b1538f98f0227b782bbe55acfc52da545ebda9d6313873562d7ec76002600084815260200190815260200160002060000160149054906101000a900460ff166002600085815260200190815260200160002060000160009054906101000a900473ffffffffffffffffffffffffffffffffffffffff166040516108ca929190611068565b60405180910390a2610909565b6040517f7c91c93400000000000000000000000000000000000000000000000000000000815260040160405180910390fd5b50565b7f000000000000000000000000000000000000000000000000000000000000000073ffffffffffffffffffffffffffffffffffffffff163373ffffffffffffffffffffffffffffffffffffffff1614610991576040517f067b2a1600000000000000000000000000000000000000000000000000000000815260040160405180910390fd5b8060008190555050565b60008054905090565b7f000000000000000000000000000000000000000000000000000000000000000073ffffffffffffffffffffffffffffffffffffffff163373ffffffffffffffffffffffffffffffffffffffff1614610a29576040517f067b2a1600000000000000000000000000000000000000000000000000000000815260040160405180910390fd5b6040518060400160405280600073ffffffffffffffffffffffffffffffffffffffff168152602001600280811115610a6457610a63610fab565b5b8152506002600083815260200190815260200160002060008201518160000160006101000a81548173ffffffffffffffffffffffffffffffffffffffff021916908373ffffffffffffffffffffffffffffffffffffffff16021790555060208201518160000160146101000a81548160ff02191690836002811115610aec57610aeb610fab565b5b021790555090505050565b60006002600083815260200190815260200160002060000160009054906101000a900473ffffffffffffffffffffffffffffffffffffffff169050919050565b80600160008473ffffffffffffffffffffffffffffffffffffffff1673ffffffffffffffffffffffffffffffffffffffff168152602001908152602001600020541015610bb9576040517f08c379a0000000000000000000000000000000000000000000000000000000008152600401610bb0906110ee565b60405180910390fd5b80600160008473ffffffffffffffffffffffffffffffffffffffff1673ffffffffffffffffffffffffffffffffffffffff1681526020019081526020016000206000828254610c08919061110e565b925050819055503373ffffffffffffffffffffffffffffffffffffffff167ff47d97c8adb59776b6d08179e655888363d90eaa2a459b62d75ffa4a37f47a8e600160003373ffffffffffffffffffffffffffffffffffffffff1673ffffffffffffffffffffffffffffffffffffffff16815260200190815260200160002054604051610c949190610d96565b60405180910390a25050565b6000600160008373ffffffffffffffffffffffffffffffffffffffff1673ffffffffffffffffffffffffffffffffffffffff168152602001908152602001600020549050919050565b600080fd5b6000819050919050565b610d0181610cee565b8114610d0c57600080fd5b50565b600081359050610d1e81610cf8565b92915050565b600060208284031215610d3a57610d39610ce9565b5b6000610d4884828501610d0f565b91505092915050565b60008115159050919050565b610d6681610d51565b82525050565b6000602082019050610d816000830184610d5d565b92915050565b610d9081610cee565b82525050565b6000602082019050610dab6000830184610d87565b92915050565b600073ffffffffffffffffffffffffffffffffffffffff82169050919050565b6000610ddc82610db1565b9050919050565b610dec81610dd1565b82525050565b6000602082019050610e076000830184610de3565b92915050565b610e1681610dd1565b8114610e2157600080fd5b50565b600081359050610e3381610e0d565b92915050565b60008060408385031215610e5057610e4f610ce9565b5b6000610e5e85828601610e24565b9250506020610e6f85828601610d0f565b9150509250929050565b600060208284031215610e8f57610e8e610ce9565b5b6000610e9d84828501610e24565b91505092915050565b7f4e487b7100000000000000000000000000000000000000000000000000000000600052601160045260246000fd5b6000610ee082610cee565b9150610eeb83610cee565b9250828202610ef981610cee565b91508282048414831517610f1057610f0f610ea6565b5b5092915050565b7f4e487b7100000000000000000000000000000000000000000000000000000000600052601260045260246000fd5b6000610f5182610cee565b9150610f5c83610cee565b925082610f6c57610f6b610f17565b5b828204905092915050565b6000610f8282610cee565b9150610f8d83610cee565b9250828201905080821115610fa557610fa4610ea6565b5b92915050565b7f4e487b7100000000000000000000000000000000000000000000000000000000600052602160045260246000fd5b600081905092915050565b50565b6000610ff5600083610fda565b915061100082610fe5565b600082019050919050565b600061101682610fe8565b9150819050919050565b6003811061103157611030610fab565b5b50565b600081905061104282611020565b919050565b600061105282611034565b9050919050565b61106281611047565b82525050565b600060408201905061107d6000830185611059565b61108a6020830184610de3565b9392505050565b600082825260208201905092915050565b7f536f6c61723a20496e73756666696369656e742042616c616e63650000000000600082015250565b60006110d8601b83611091565b91506110e3826110a2565b602082019050919050565b60006020820190508181036000830152611107816110cb565b9050919050565b600061111982610cee565b915061112483610cee565b925082820390508181111561113c5761113b610ea6565b5b9291505056fea264697066735822122005e2dcaf534b033e15d9a41d8c02a48565f5b6c545e81d6114411335c92675b564736f6c63430008110033",
  "devdoc": {
    "kind": "dev",
    "methods": {},
    "version": 1
  },
  "userdoc": {
    "kind": "user",
    "methods": {},
    "version": 1
  },
  "storageLayout": {
    "storage": [
      {
        "astId": 25,
        "contract": "contracts/Solar.sol:Solar",
        "label": "pricePerUnitInWei",
        "offset": 0,
        "slot": "0",
        "type": "t_uint256"
      },
      {
        "astId": 29,
        "contract": "contracts/Solar.sol:Solar",
        "label": "_balances",
        "offset": 0,
        "slot": "1",
        "type": "t_mapping(t_address,t_uint256)"
      },
      {
        "astId": 34,
        "contract": "contracts/Solar.sol:Solar",
        "label": "machine",
        "offset": 0,
        "slot": "2",
        "type": "t_mapping(t_uint256,t_struct(machineInfo)23_storage)"
      }
    ],
    "types": {
      "t_address": {
        "encoding": "inplace",
        "label": "address",
        "numberOfBytes": "20"
      },
      "t_enum(State)17": {
        "encoding": "inplace",
        "label": "enum Solar.State",
        "numberOfBytes": "1"
      },
      "t_mapping(t_address,t_uint256)": {
        "encoding": "mapping",
        "key": "t_address",
        "label": "mapping(address => uint256)",
        "numberOfBytes": "32",
        "value": "t_uint256"
      },
      "t_mapping(t_uint256,t_struct(machineInfo)23_storage)": {
        "encoding": "mapping",
        "key": "t_uint256",
        "label": "mapping(uint256 => struct Solar.machineInfo)",
        "numberOfBytes": "32",
        "value": "t_struct(machineInfo)23_storage"
      },
      "t_struct(machineInfo)23_storage": {
        "encoding": "inplace",
        "label": "struct Solar.machineInfo",
        "members": [
          {
            "astId": 19,
            "contract": "contracts/Solar.sol:Solar",
            "label": "currentUser",
            "offset": 0,
            "slot": "0",
            "type": "t_address"
          },
          {
            "astId": 22,
            "contract": "contracts/Solar.sol:Solar",
            "label": "state",
            "offset": 20,
            "slot": "0",
            "type": "t_enum(State)17"
          }
        ],
        "numberOfBytes": "32"
      },
      "t_uint256": {
        "encoding": "inplace",
        "label": "uint256",
        "numberOfBytes": "32"
      }
    }
  }
}