{
  "address": "0x20496B557a898A6e28156aF0a6529d8e5DCbD95C",
  "abi": [
    {
      "inputs": [
        {
          "internalType": "uint256",
          "name": "_pricePerUnitInWei",
          "type": "uint256"
        }
      ],
      "stateMutability": "nonpayable",
      "type": "constructor"
    },
    {
      "inputs": [],
      "name": "Solar_AmbiguousState",
      "type": "error"
    },
    {
      "inputs": [
        {
          "internalType": "uint256",
          "name": "given",
          "type": "uint256"
        }
      ],
      "name": "Solar_InsufficientFunds",
      "type": "error"
    },
    {
      "inputs": [],
      "name": "Solar_NoFallback",
      "type": "error"
    },
    {
      "inputs": [],
      "name": "Solar_NoWithdraw",
      "type": "error"
    },
    {
      "inputs": [],
      "name": "Solar_NotOwner",
      "type": "error"
    },
    {
      "anonymous": false,
      "inputs": [
        {
          "indexed": true,
          "internalType": "address",
          "name": "buyer",
          "type": "address"
        },
        {
          "indexed": false,
          "internalType": "uint256",
          "name": "amount",
          "type": "uint256"
        }
      ],
      "name": "SolarBalanceSet",
      "type": "event"
    },
    {
      "anonymous": false,
      "inputs": [
        {
          "indexed": false,
          "internalType": "uint256",
          "name": "amount",
          "type": "uint256"
        }
      ],
      "name": "SolarWithdraw",
      "type": "event"
    },
    {
      "stateMutability": "payable",
      "type": "fallback"
    },
    {
      "inputs": [],
      "name": "buy",
      "outputs": [],
      "stateMutability": "payable",
      "type": "function"
    },
    {
      "inputs": [],
      "name": "getBalance",
      "outputs": [
        {
          "internalType": "uint256",
          "name": "",
          "type": "uint256"
        }
      ],
      "stateMutability": "view",
      "type": "function"
    },
    {
      "inputs": [
        {
          "internalType": "uint32",
          "name": "_machineId",
          "type": "uint32"
        }
      ],
      "name": "getMachineState",
      "outputs": [
        {
          "internalType": "bool",
          "name": "",
          "type": "bool"
        }
      ],
      "stateMutability": "view",
      "type": "function"
    },
    {
      "inputs": [],
      "name": "getPrice",
      "outputs": [
        {
          "internalType": "uint256",
          "name": "",
          "type": "uint256"
        }
      ],
      "stateMutability": "view",
      "type": "function"
    },
    {
      "inputs": [
        {
          "internalType": "uint256",
          "name": "usedbalance",
          "type": "uint256"
        }
      ],
      "name": "setBalance",
      "outputs": [],
      "stateMutability": "nonpayable",
      "type": "function"
    },
    {
      "inputs": [
        {
          "internalType": "uint32",
          "name": "_machineId",
          "type": "uint32"
        }
      ],
      "name": "setMachine",
      "outputs": [],
      "stateMutability": "nonpayable",
      "type": "function"
    },
    {
      "inputs": [
        {
          "internalType": "uint32",
          "name": "_machineState",
          "type": "uint32"
        },
        {
          "internalType": "bool",
          "name": "state",
          "type": "bool"
        }
      ],
      "name": "setMachineState",
      "outputs": [],
      "stateMutability": "nonpayable",
      "type": "function"
    },
    {
      "inputs": [
        {
          "internalType": "uint256",
          "name": "_pricePerUnitInWei",
          "type": "uint256"
        }
      ],
      "name": "setPrice",
      "outputs": [],
      "stateMutability": "nonpayable",
      "type": "function"
    },
    {
      "inputs": [],
      "name": "withdraw",
      "outputs": [],
      "stateMutability": "nonpayable",
      "type": "function"
    },
    {
      "stateMutability": "payable",
      "type": "receive"
    }
  ],
  "transactionHash": "0xf0ccb31db2df1d880e9d4325aa9c20a03fae42d2623ce7b3460981a2d10e07b2",
  "args": [
    "272136077158440"
  ],
  "numDeployments": 2,
  "solcInputHash": "3c538c2ea508bdf5dba6e50ea860eb5c",
  "bytecode": "0x60a060405234801561001057600080fd5b50604051610dba380380610dba833981810160405281019061003291906100ae565b806000819055503373ffffffffffffffffffffffffffffffffffffffff1660808173ffffffffffffffffffffffffffffffffffffffff1681525050506100db565b600080fd5b6000819050919050565b61008b81610078565b811461009657600080fd5b50565b6000815190506100a881610082565b92915050565b6000602082840312156100c4576100c3610073565b5b60006100d284828501610099565b91505092915050565b608051610cb6610104600039600081816103df0152818161054701526105df0152610cb66000f3fe60806040526004361061008a5760003560e01c806398d5fdca1161005957806398d5fdca14610173578063a6f2ae3a1461019e578063aa0d5768146101a8578063dd2a0812146101d1578063fb1669ca146101fa57610099565b806312065fe0146100cb5780631f860ea5146100f65780633ccfd60b1461013357806391b7f5ed1461014a57610099565b3661009957610097610223565b005b6040517f3d6caa7900000000000000000000000000000000000000000000000000000000815260040160405180910390fd5b3480156100d757600080fd5b506100e0610323565b6040516100ed919061094e565b60405180910390f35b34801561010257600080fd5b5061011d600480360381019061011891906109aa565b61036a565b60405161012a91906109f2565b60405180910390f35b34801561013f57600080fd5b506101486103dd565b005b34801561015657600080fd5b50610171600480360381019061016c9190610a39565b610545565b005b34801561017f57600080fd5b506101886105d4565b604051610195919061094e565b60405180910390f35b6101a6610223565b005b3480156101b457600080fd5b506101cf60048036038101906101ca91906109aa565b6105dd565b005b3480156101dd57600080fd5b506101f860048036038101906101f39190610a92565b6106ad565b005b34801561020657600080fd5b50610221600480360381019061021c9190610a39565b61084f565b005b6000340361026857346040517fccc1a98800000000000000000000000000000000000000000000000000000000815260040161025f919061094e565b60405180910390fd5b6000600160003373ffffffffffffffffffffffffffffffffffffffff1673ffffffffffffffffffffffffffffffffffffffff16815260200190815260200160002054905060008054670de0b6b3a7640000346102c49190610b01565b6102ce9190610b72565b905080826102dc9190610ba3565b600160003373ffffffffffffffffffffffffffffffffffffffff1673ffffffffffffffffffffffffffffffffffffffff168152602001908152602001600020819055505050565b6000600160003373ffffffffffffffffffffffffffffffffffffffff1673ffffffffffffffffffffffffffffffffffffffff16815260200190815260200160002054905090565b600080600260008463ffffffff1663ffffffff16815260200190815260200160002060009054906101000a900460ff169050600060018111156103b0576103af610bd7565b5b8160018111156103c3576103c2610bd7565b5b036103d25760019150506103d8565b60009150505b919050565b7f000000000000000000000000000000000000000000000000000000000000000073ffffffffffffffffffffffffffffffffffffffff163373ffffffffffffffffffffffffffffffffffffffff1614610462576040517f067b2a1600000000000000000000000000000000000000000000000000000000815260040160405180910390fd5b600047905060003373ffffffffffffffffffffffffffffffffffffffff168260405161048d90610c37565b60006040518083038185875af1925050503d80600081146104ca576040519150601f19603f3d011682016040523d82523d6000602084013e6104cf565b606091505b505090508061050a576040517f5127457800000000000000000000000000000000000000000000000000000000815260040160405180910390fd5b7f31988d65ba269c558c03d84992bf850927f450ba8dedd9c09b0f72fd9557bd8e82604051610539919061094e565b60405180910390a15050565b7f000000000000000000000000000000000000000000000000000000000000000073ffffffffffffffffffffffffffffffffffffffff163373ffffffffffffffffffffffffffffffffffffffff16146105ca576040517f067b2a1600000000000000000000000000000000000000000000000000000000815260040160405180910390fd5b8060008190555050565b60008054905090565b7f000000000000000000000000000000000000000000000000000000000000000073ffffffffffffffffffffffffffffffffffffffff163373ffffffffffffffffffffffffffffffffffffffff1614610662576040517f067b2a1600000000000000000000000000000000000000000000000000000000815260040160405180910390fd5b6001600260008363ffffffff1663ffffffff16815260200190815260200160002060006101000a81548160ff021916908360018111156106a5576106a4610bd7565b5b021790555050565b6001151581151514801561071057506001808111156106cf576106ce610bd7565b5b600260008463ffffffff1663ffffffff16815260200190815260200160002060009054906101000a900460ff16600181111561070e5761070d610bd7565b5b145b15610762576000600260008463ffffffff1663ffffffff16815260200190815260200160002060006101000a81548160ff0219169083600181111561075857610757610bd7565b5b021790555061084b565b600015158115151480156107c657506000600181111561078557610784610bd7565b5b600260008463ffffffff1663ffffffff16815260200190815260200160002060009054906101000a900460ff1660018111156107c4576107c3610bd7565b5b145b15610818576001600260008463ffffffff1663ffffffff16815260200190815260200160002060006101000a81548160ff0219169083600181111561080e5761080d610bd7565b5b021790555061084a565b6040517f7c91c93400000000000000000000000000000000000000000000000000000000815260040160405180910390fd5b5b5050565b80600160003373ffffffffffffffffffffffffffffffffffffffff1673ffffffffffffffffffffffffffffffffffffffff168152602001908152602001600020600082825461089e9190610c4c565b925050819055503373ffffffffffffffffffffffffffffffffffffffff167ff47d97c8adb59776b6d08179e655888363d90eaa2a459b62d75ffa4a37f47a8e600160003373ffffffffffffffffffffffffffffffffffffffff1673ffffffffffffffffffffffffffffffffffffffff1681526020019081526020016000205460405161092a919061094e565b60405180910390a250565b6000819050919050565b61094881610935565b82525050565b6000602082019050610963600083018461093f565b92915050565b600080fd5b600063ffffffff82169050919050565b6109878161096e565b811461099257600080fd5b50565b6000813590506109a48161097e565b92915050565b6000602082840312156109c0576109bf610969565b5b60006109ce84828501610995565b91505092915050565b60008115159050919050565b6109ec816109d7565b82525050565b6000602082019050610a0760008301846109e3565b92915050565b610a1681610935565b8114610a2157600080fd5b50565b600081359050610a3381610a0d565b92915050565b600060208284031215610a4f57610a4e610969565b5b6000610a5d84828501610a24565b91505092915050565b610a6f816109d7565b8114610a7a57600080fd5b50565b600081359050610a8c81610a66565b92915050565b60008060408385031215610aa957610aa8610969565b5b6000610ab785828601610995565b9250506020610ac885828601610a7d565b9150509250929050565b7f4e487b7100000000000000000000000000000000000000000000000000000000600052601160045260246000fd5b6000610b0c82610935565b9150610b1783610935565b9250828202610b2581610935565b91508282048414831517610b3c57610b3b610ad2565b5b5092915050565b7f4e487b7100000000000000000000000000000000000000000000000000000000600052601260045260246000fd5b6000610b7d82610935565b9150610b8883610935565b925082610b9857610b97610b43565b5b828204905092915050565b6000610bae82610935565b9150610bb983610935565b9250828201905080821115610bd157610bd0610ad2565b5b92915050565b7f4e487b7100000000000000000000000000000000000000000000000000000000600052602160045260246000fd5b600081905092915050565b50565b6000610c21600083610c06565b9150610c2c82610c11565b600082019050919050565b6000610c4282610c14565b9150819050919050565b6000610c5782610935565b9150610c6283610935565b9250828203905081811115610c7a57610c79610ad2565b5b9291505056fea26469706673582212207bf2cec5ca9741b34fcca0585fc7fa5430db584e27c94e582b72b50a2510051664736f6c63430008110033",
  "devdoc": {
    "kind": "dev",
    "methods": {},
    "version": 1
  },
  "userdoc": {
    "kind": "user",
    "methods": {},
    "version": 1
  },
  "storageLayout": {
    "storage": [
      {
        "astId": 18,
        "contract": "contracts/Solar.sol:Solar",
        "label": "pricePerUnitInWei",
        "offset": 0,
        "slot": "0",
        "type": "t_uint256"
      },
      {
        "astId": 22,
        "contract": "contracts/Solar.sol:Solar",
        "label": "_balances",
        "offset": 0,
        "slot": "1",
        "type": "t_mapping(t_address,t_uint256)"
      },
      {
        "astId": 27,
        "contract": "contracts/Solar.sol:Solar",
        "label": "machine",
        "offset": 0,
        "slot": "2",
        "type": "t_mapping(t_uint32,t_enum(State)16)"
      }
    ],
    "types": {
      "t_address": {
        "encoding": "inplace",
        "label": "address",
        "numberOfBytes": "20"
      },
      "t_enum(State)16": {
        "encoding": "inplace",
        "label": "enum Solar.State",
        "numberOfBytes": "1"
      },
      "t_mapping(t_address,t_uint256)": {
        "encoding": "mapping",
        "key": "t_address",
        "label": "mapping(address => uint256)",
        "numberOfBytes": "32",
        "value": "t_uint256"
      },
      "t_mapping(t_uint32,t_enum(State)16)": {
        "encoding": "mapping",
        "key": "t_uint32",
        "label": "mapping(uint32 => enum Solar.State)",
        "numberOfBytes": "32",
        "value": "t_enum(State)16"
      },
      "t_uint256": {
        "encoding": "inplace",
        "label": "uint256",
        "numberOfBytes": "32"
      },
      "t_uint32": {
        "encoding": "inplace",
        "label": "uint32",
        "numberOfBytes": "4"
      }
    }
  }
}