{
  "address": "0x8F02e2c49609dAB8c88BC2b5634a8520efb7B339",
  "abi": [
    {
      "inputs": [
        {
          "internalType": "uint256",
          "name": "_pricePerUnitInWei",
          "type": "uint256"
        }
      ],
      "stateMutability": "nonpayable",
      "type": "constructor"
    },
    {
      "inputs": [],
      "name": "Solar_AmbiguousState",
      "type": "error"
    },
    {
      "inputs": [
        {
          "internalType": "uint256",
          "name": "given",
          "type": "uint256"
        }
      ],
      "name": "Solar_InsufficientFunds",
      "type": "error"
    },
    {
      "inputs": [],
      "name": "Solar_NoFallback",
      "type": "error"
    },
    {
      "inputs": [],
      "name": "Solar_NoWithdraw",
      "type": "error"
    },
    {
      "inputs": [],
      "name": "Solar_NotOwner",
      "type": "error"
    },
    {
      "anonymous": false,
      "inputs": [
        {
          "indexed": true,
          "internalType": "address",
          "name": "buyer",
          "type": "address"
        },
        {
          "indexed": false,
          "internalType": "uint256",
          "name": "amount",
          "type": "uint256"
        }
      ],
      "name": "SolarBalanceSet",
      "type": "event"
    },
    {
      "anonymous": false,
      "inputs": [
        {
          "indexed": false,
          "internalType": "uint256",
          "name": "amount",
          "type": "uint256"
        }
      ],
      "name": "SolarWithdraw",
      "type": "event"
    },
    {
      "stateMutability": "payable",
      "type": "fallback"
    },
    {
      "inputs": [],
      "name": "buy",
      "outputs": [],
      "stateMutability": "payable",
      "type": "function"
    },
    {
      "inputs": [],
      "name": "getBalance",
      "outputs": [
        {
          "internalType": "uint256",
          "name": "",
          "type": "uint256"
        }
      ],
      "stateMutability": "view",
      "type": "function"
    },
    {
      "inputs": [
        {
          "internalType": "uint256",
          "name": "_machineId",
          "type": "uint256"
        }
      ],
      "name": "getMachineState",
      "outputs": [
        {
          "internalType": "bool",
          "name": "",
          "type": "bool"
        }
      ],
      "stateMutability": "view",
      "type": "function"
    },
    {
      "inputs": [],
      "name": "getPrice",
      "outputs": [
        {
          "internalType": "uint256",
          "name": "",
          "type": "uint256"
        }
      ],
      "stateMutability": "view",
      "type": "function"
    },
    {
      "inputs": [
        {
          "internalType": "uint256",
          "name": "usedbalance",
          "type": "uint256"
        }
      ],
      "name": "setBalance",
      "outputs": [],
      "stateMutability": "nonpayable",
      "type": "function"
    },
    {
      "inputs": [
        {
          "internalType": "uint256",
          "name": "_machineId",
          "type": "uint256"
        }
      ],
      "name": "setMachine",
      "outputs": [],
      "stateMutability": "nonpayable",
      "type": "function"
    },
    {
      "inputs": [
        {
          "internalType": "uint256",
          "name": "_pricePerUnitInWei",
          "type": "uint256"
        }
      ],
      "name": "setPrice",
      "outputs": [],
      "stateMutability": "nonpayable",
      "type": "function"
    },
    {
      "inputs": [
        {
          "internalType": "uint256",
          "name": "_machineId",
          "type": "uint256"
        }
      ],
      "name": "startMachine",
      "outputs": [],
      "stateMutability": "nonpayable",
      "type": "function"
    },
    {
      "inputs": [
        {
          "internalType": "uint256",
          "name": "_machineId",
          "type": "uint256"
        }
      ],
      "name": "stopMachine",
      "outputs": [],
      "stateMutability": "nonpayable",
      "type": "function"
    },
    {
      "inputs": [],
      "name": "withdraw",
      "outputs": [],
      "stateMutability": "nonpayable",
      "type": "function"
    },
    {
      "stateMutability": "payable",
      "type": "receive"
    }
  ],
  "transactionHash": "0xf52d26519c184d7d058d1f13867366e2f822ef63485c25df52aba47df6012049",
  "args": [
    "272136077158440"
  ],
  "numDeployments": 6,
  "solcInputHash": "e8e407ec42ca42a67cae47be674b3e8b",
  "bytecode": "0x60a060405234801561001057600080fd5b50604051610d41380380610d41833981810160405281019061003291906100ae565b806000819055503373ffffffffffffffffffffffffffffffffffffffff1660808173ffffffffffffffffffffffffffffffffffffffff1681525050506100db565b600080fd5b6000819050919050565b61008b81610078565b811461009657600080fd5b50565b6000815190506100a881610082565b92915050565b6000602082840312156100c4576100c3610073565b5b60006100d284828501610099565b91505092915050565b608051610c3d610104600039600081816104680152818161075201526107ea0152610c3d6000f3fe6080604052600436106100955760003560e01c806391b7f5ed1161005957806391b7f5ed146101a757806398d5fdca146101d0578063990da6aa146101fb578063a6f2ae3a14610224578063fb1669ca1461022e576100a4565b80630e67723b146100d657806312065fe0146101135780633ccfd60b1461013e578063721b5ea6146101555780637d22902f1461017e576100a4565b366100a4576100a2610257565b005b6040517f3d6caa7900000000000000000000000000000000000000000000000000000000815260040160405180910390fd5b3480156100e257600080fd5b506100fd60048036038101906100f891906109cc565b610357565b60405161010a9190610a14565b60405180910390f35b34801561011f57600080fd5b5061012861041f565b6040516101359190610a3e565b60405180910390f35b34801561014a57600080fd5b50610153610466565b005b34801561016157600080fd5b5061017c600480360381019061017791906109cc565b6105ce565b005b34801561018a57600080fd5b506101a560048036038101906101a091906109cc565b61068f565b005b3480156101b357600080fd5b506101ce60048036038101906101c991906109cc565b610750565b005b3480156101dc57600080fd5b506101e56107df565b6040516101f29190610a3e565b60405180910390f35b34801561020757600080fd5b50610222600480360381019061021d91906109cc565b6107e8565b005b61022c610257565b005b34801561023a57600080fd5b50610255600480360381019061025091906109cc565b6108ab565b005b6000340361029c57346040517fccc1a9880000000000000000000000000000000000000000000000000000000081526004016102939190610a3e565b60405180910390fd5b6000600160003373ffffffffffffffffffffffffffffffffffffffff1673ffffffffffffffffffffffffffffffffffffffff16815260200190815260200160002054905060008054670de0b6b3a7640000346102f89190610a88565b6103029190610af9565b905080826103109190610b2a565b600160003373ffffffffffffffffffffffffffffffffffffffff1673ffffffffffffffffffffffffffffffffffffffff168152602001908152602001600020819055505050565b6000806002600084815260200190815260200160002060009054906101000a900460ff1690506001600281111561039157610390610b5e565b5b8160028111156103a4576103a3610b5e565b5b036103b357600191505061041a565b6002808111156103c6576103c5610b5e565b5b8160028111156103d9576103d8610b5e565b5b036103e857600091505061041a565b6040517f7c91c93400000000000000000000000000000000000000000000000000000000815260040160405180910390fd5b919050565b6000600160003373ffffffffffffffffffffffffffffffffffffffff1673ffffffffffffffffffffffffffffffffffffffff16815260200190815260200160002054905090565b7f000000000000000000000000000000000000000000000000000000000000000073ffffffffffffffffffffffffffffffffffffffff163373ffffffffffffffffffffffffffffffffffffffff16146104eb576040517f067b2a1600000000000000000000000000000000000000000000000000000000815260040160405180910390fd5b600047905060003373ffffffffffffffffffffffffffffffffffffffff168260405161051690610bbe565b60006040518083038185875af1925050503d8060008114610553576040519150601f19603f3d011682016040523d82523d6000602084013e610558565b606091505b5050905080610593576040517f5127457800000000000000000000000000000000000000000000000000000000815260040160405180910390fd5b7f31988d65ba269c558c03d84992bf850927f450ba8dedd9c09b0f72fd9557bd8e826040516105c29190610a3e565b60405180910390a15050565b600160028111156105e2576105e1610b5e565b5b6002600083815260200190815260200160002060009054906101000a900460ff16600281111561061557610614610b5e565b5b0361065a57600280600083815260200190815260200160002060006101000a81548160ff021916908360028111156106505761064f610b5e565b5b021790555061068c565b6040517f7c91c93400000000000000000000000000000000000000000000000000000000815260040160405180910390fd5b50565b6002808111156106a2576106a1610b5e565b5b6002600083815260200190815260200160002060009054906101000a900460ff1660028111156106d5576106d4610b5e565b5b0361071b5760016002600083815260200190815260200160002060006101000a81548160ff0219169083600281111561071157610710610b5e565b5b021790555061074d565b6040517f7c91c93400000000000000000000000000000000000000000000000000000000815260040160405180910390fd5b50565b7f000000000000000000000000000000000000000000000000000000000000000073ffffffffffffffffffffffffffffffffffffffff163373ffffffffffffffffffffffffffffffffffffffff16146107d5576040517f067b2a1600000000000000000000000000000000000000000000000000000000815260040160405180910390fd5b8060008190555050565b60008054905090565b7f000000000000000000000000000000000000000000000000000000000000000073ffffffffffffffffffffffffffffffffffffffff163373ffffffffffffffffffffffffffffffffffffffff161461086d576040517f067b2a1600000000000000000000000000000000000000000000000000000000815260040160405180910390fd5b600280600083815260200190815260200160002060006101000a81548160ff021916908360028111156108a3576108a2610b5e565b5b021790555050565b80600160003373ffffffffffffffffffffffffffffffffffffffff1673ffffffffffffffffffffffffffffffffffffffff16815260200190815260200160002060008282546108fa9190610bd3565b925050819055503373ffffffffffffffffffffffffffffffffffffffff167ff47d97c8adb59776b6d08179e655888363d90eaa2a459b62d75ffa4a37f47a8e600160003373ffffffffffffffffffffffffffffffffffffffff1673ffffffffffffffffffffffffffffffffffffffff168152602001908152602001600020546040516109869190610a3e565b60405180910390a250565b600080fd5b6000819050919050565b6109a981610996565b81146109b457600080fd5b50565b6000813590506109c6816109a0565b92915050565b6000602082840312156109e2576109e1610991565b5b60006109f0848285016109b7565b91505092915050565b60008115159050919050565b610a0e816109f9565b82525050565b6000602082019050610a296000830184610a05565b92915050565b610a3881610996565b82525050565b6000602082019050610a536000830184610a2f565b92915050565b7f4e487b7100000000000000000000000000000000000000000000000000000000600052601160045260246000fd5b6000610a9382610996565b9150610a9e83610996565b9250828202610aac81610996565b91508282048414831517610ac357610ac2610a59565b5b5092915050565b7f4e487b7100000000000000000000000000000000000000000000000000000000600052601260045260246000fd5b6000610b0482610996565b9150610b0f83610996565b925082610b1f57610b1e610aca565b5b828204905092915050565b6000610b3582610996565b9150610b4083610996565b9250828201905080821115610b5857610b57610a59565b5b92915050565b7f4e487b7100000000000000000000000000000000000000000000000000000000600052602160045260246000fd5b600081905092915050565b50565b6000610ba8600083610b8d565b9150610bb382610b98565b600082019050919050565b6000610bc982610b9b565b9150819050919050565b6000610bde82610996565b9150610be983610996565b9250828203905081811115610c0157610c00610a59565b5b9291505056fea26469706673582212206bfb9bbb63e83d55b0959d1276ef20aa38dbed931b3f1afc66a779b87e19cd5e64736f6c63430008110033",
  "devdoc": {
    "kind": "dev",
    "methods": {},
    "version": 1
  },
  "userdoc": {
    "kind": "user",
    "methods": {},
    "version": 1
  },
  "storageLayout": {
    "storage": [
      {
        "astId": 19,
        "contract": "contracts/Solar.sol:Solar",
        "label": "pricePerUnitInWei",
        "offset": 0,
        "slot": "0",
        "type": "t_uint256"
      },
      {
        "astId": 23,
        "contract": "contracts/Solar.sol:Solar",
        "label": "_balances",
        "offset": 0,
        "slot": "1",
        "type": "t_mapping(t_address,t_uint256)"
      },
      {
        "astId": 28,
        "contract": "contracts/Solar.sol:Solar",
        "label": "machine",
        "offset": 0,
        "slot": "2",
        "type": "t_mapping(t_uint256,t_enum(State)17)"
      }
    ],
    "types": {
      "t_address": {
        "encoding": "inplace",
        "label": "address",
        "numberOfBytes": "20"
      },
      "t_enum(State)17": {
        "encoding": "inplace",
        "label": "enum Solar.State",
        "numberOfBytes": "1"
      },
      "t_mapping(t_address,t_uint256)": {
        "encoding": "mapping",
        "key": "t_address",
        "label": "mapping(address => uint256)",
        "numberOfBytes": "32",
        "value": "t_uint256"
      },
      "t_mapping(t_uint256,t_enum(State)17)": {
        "encoding": "mapping",
        "key": "t_uint256",
        "label": "mapping(uint256 => enum Solar.State)",
        "numberOfBytes": "32",
        "value": "t_enum(State)17"
      },
      "t_uint256": {
        "encoding": "inplace",
        "label": "uint256",
        "numberOfBytes": "32"
      }
    }
  }
}